:100000000C94D5000C94F6000C94F6000C94F600B9
:100010000C94F6000C94F6000C94F6000C94F60088
:100020000C94F6000C946E030C94F6000C94F600FD
:100030000C94F6000C94F6000C94F6000C94F60068
:100040000C94F6000C94F6000C94F6000C94F60058
:100050000C94A2030C94F6000C94F6000C94F60099
:100060000C94F6000C94F6000C94F6000C94F60038
:100070000C94F6000C94F6000C94F6000C94F60028
:100080000C94F6000C94F6000C94F6000C94F60018
:100090000C94F6000C94F6000C94F6000C942205D7
:1000A0000C94F6000C94F6000C94F6000C94F600F8
:1000B0000C94F6000C94F6000C94F6000C94F600E8
:1000C0000C94F6000C94F6000C94F6000C94F600D8
:1000D0000C94F6000C94F6000C94F6000C94F600C8
:1000E0000C94F6004105930593059305930593053C
:1000F0009305930541059305930593059305930592
:10010000930593054305930593059305930593057F
:10011000930593059305930593059305930593051F
:10012000930593054305930593059305930593055F
:1001300093059305930593059305930593059305FF
:10014000930593058F0593059305930593059305F3
:10015000930593056C059305930593059305930506
:1001600093059305930593059305930593059305CF
:1001700093059305600593059305930593059305F2
:10018000930593057E050C9443050C947E050C9411
:100190006A010C948F050C9460050C946C050C940A
:1001A00059010C9441050C94930511241FBECFEF07
:1001B000D1E2DEBFCDBF00E00CBF12E0A0E0B2E0B4
:1001C000ECEFF9E100E00BBF02C007900D92A238FE
:1001D000B107D9F722E0A2E8B2E001C01D92A93927
:1001E000B207E1F70E94F8000C94FC0C0C9400009C
:1001F000CF93DF93CDB7DEB727970FB6F894DEBF66
:100200000FBECDBF87E690E00E9473010E9460039D
:1002100010928A021092890210928E0210928D0220
:1002200010928C0210928B02F8940E9492040E9409
:1002300035020E9482030E94B7040E94A9057894A7
:100240000E949A030E94C50507E012E080918B028C
:1002500090918C02892B51F110928C0210928B029A
:10026000AE014A5F5F4FBE016F5F7F4FCE010396C5
:100270000E9427036B8170E080E090E00E945207AB
:100280000E9441048E8190E090938A0280938902BB
:100290008D810E948B048D811F928F931F930F93EA
:1002A0000E94C1080F900F900F900F900E94AB0416
:1002B000CDCFE0ECF0E0908195FFFDCF8093C600BC
:1002C0008A3029F460E070E08DE00E94590180E0FE
:1002D00090E00895E0ECF0E080818823ECF78091D5
:1002E000C60090E008959093C5008093C40088E113
:1002F0008093C1008EE08093C2006AE671E089E5D8
:1003000091E00E947608089587E690E00E947301CC
:1003100060E070E081E40E9459018BE092E00E946D
:10032000D50880E090E00E946A0160E070E00E94E1
:1003300059018FE39FE10197F1F700C00000F1CF71
:1003400087E884B9239881E58CBD08958EBD0DB4EE
:1003500007FEFDCF089580E00E94A6010DB407FEC0
:10036000FDCF8EB508952F9880EC0E94A6012F9A9C
:100370000895CF93C82F2F9883E00E94A6018C2F59
:100380000E94A6010E94AB012F9ACF9108950E946E
:10039000A0010E94B3018EE00E94B901807E8038E6
:1003A000D1F780E192E00E94D50880E00895CF93D4
:1003B000DF93D82FC62F2F9882E00E94A6018D2FA1
:1003C0000E94A6018C2F0E94A6012F9ADF91CF9147
:1003D000089587782F9880680E94A6012F9A089523
:1003E0001F93CF93DF93C82F162FD42F2F9885E01C
:1003F0000E94A6018C2F0E94A601812F0E94A601B7
:100400008D2F0E94A6012F9A8C2F0E94B901DF9197
:10041000CF911F9108952F9880EA0E94A6010E9413
:10042000AB012F9A08950E94C70160E48FE00E94FB
:10043000D7018EE00E94B90186FFFBCF8EE392E0E8
:100440000E94D50863E08BE20E94D70160E080E360
:100450000E94D70160E080E40E94D70160E080E55F
:100460000E94D70180E090E008950E94C70163E0F8
:100470008AE20E94D7016AE989E20E94D70167E017
:1004800088E20E94D70140E060E680E60E94F00129
:1004900060E08FE00E94D7018EE00E94B901807E6B
:1004A000D9F78AE592E00E94D50863E08BE20E94CA
:1004B000D70160E080E30E94D70160E080E40E9401
:1004C000D70160E080E50E94D70180E090E00895C8
:1004D0000F931F93CF93DF938C01FC018081918157
:1004E000BC01687F7770EC01C770DD277695679552
:1004F000769567957695679581E30E94D701BE0151
:10050000660F771F62957295707F7627607F7627DA
:1005100082E30E94D701F801628185E30E94D7013E
:10052000F8018281882371F0C0E0F801EC0FF11D21
:10053000638186E38C0F0E94D701CF5FF80182812F
:10054000C81798F381E00E94E9010E940B0282FF24
:10055000FCCFDF91CF911F910F9108958CE20E9403
:10056000B90108959F92AF92BF92CF92DF92EF921E
:10057000FF920F931F93CF93DF93CDB7DEB72B97E7
:100580000FB6F894DEBF0FBECDBF6C010E94AE0265
:1005900080FFFCCF0E940B0280FF3BC081E60E94DF
:1005A000B901A82E82E60E94B901829586958770CE
:1005B000B12CAA0CBB1CAA0CBB1CAA0CBB1CA82AE5
:1005C00085E60E94B9018F70982E81F07E0184E04B
:1005D000E80EF11C06E6090D16E6812F0E94B9010E
:1005E000F70181937F011F5F1013F7CF0E940B0269
:1005F000682F6E7F8CE20E94D701BA82A9829B820B
:100600008BE0FE013196D60101900D928A95E1F7BB
:100610000BC01A8219821B828BE0FE013196D60133
:1006200001900D928A95E1F7C6012B960FB6F894CA
:10063000DEBF0FBECDBFDF91CF911F910F91FF9015
:10064000EF90DF90CF90BF90AF909F900895CF92A2
:10065000DF92EF92FF920F931F93CF93DF93CDB76B
:10066000DEB72B970FB6F894DEBF0FBECDBF8C015F
:100670006B017A01CE0101960E94B2028C81F801D1
:1006800080838D8181838E8182838F81082E000CEF
:10069000990BF601918380838885F7018183898591
:1006A00080832B960FB6F894DEBF0FBECDBFDF91CF
:1006B000CF911F910F91FF90EF90DF90CF90089511
:1006C0002698F894EBE6F0E0808180648083E8E689
:1006D000F0E0808181608083789408951F920F926A
:1006E0000FB60F9211248F939F9381E090E0909327
:1006F0008C0280938B029F918F910F900FBE0F9071
:100700001F901895259AE1E8F0E080818A61808346
:1007100080818A7F8083E0E8F0E080818E7B808327
:100720008081826880838FE39CE990938700809327
:1007300086000895F894EFE6F0E080818160808380
:10074000789408951F920F920FB60F9211240BB652
:100750000F92CF92DF92EF92FF920F931F932F93FE
:100760003F934F935F936F937F938F939F93AF9339
:10077000BF93CF93DF93EF93FF93C0918902D09102
:100780008A020E94E8050E94D2058C0180918902AC
:1007900090918A029F938F9384E792E09F938F9327
:1007A0000E94C1081F930F938BE792E09F938F9352
:1007B0000E94C108BE01601B710B80918D02909157
:1007C0008E02860F971F90938E0280938D028091E8
:1007D0008D0290918E0299231CF491958195910937
:1007E0002DB73EB7285F3F4F0FB6F8943EBF0FBE00
:1007F0002DBF893E93401CF46115710521F470935F
:100800008E0260938D02C0918D02D0918E02072ED0
:10081000000C880B990B0E9454076B017C01BE01F0
:10082000DD0F880B990B0E9454072AE037ED43EA4D
:100830005CE30E9409089B01AC01C701B6010E945C
:1008400039060E941C07CB010E940506FF91EF911B
:10085000DF91CF91BF91AF919F918F917F916F91D8
:100860005F914F913F912F911F910F91FF90EF90CA
:10087000DF90CF900F900BBE0F900FBE0F901F9088
:100880001895CF92DF92EF92FF9220E030E04FE791
:1008900053E40E94AA0620E030E040E85FE30E94B3
:1008A00039066B017C0120E030E040E85FE30E9404
:1008B000040888232CF120E030E040E050E4C70138
:1008C000B6010E94A5061816DCF02FE632E143E8D7
:1008D0005AE3C701B6010E94090820E034E244E768
:1008E0005BE40E94090820E030E040E05EE30E9403
:1008F00009080E941C07709389006093880006C055
:1009000088EB9BE09093890080938800FF90EF90A4
:10091000DF90CF900895249A811102C02C9A0895F7
:100920002C980895ECE7F0E08081807E8083ABE72F
:10093000B0E08C91877F8C93AAE7B0E08C918068BF
:100940008C938C9187608C9380818064808380817C
:100950008F7780830895EAE7F0E080818064808368
:10096000809178002091790090E0922B08958CE09E
:100970008093B8008FEF8093BB0084E08093BC002D
:1009800008958091BC0081700895ECEBF0E08081C7
:1009900080FDFDCF809100020895CF93DF93EC019D
:1009A000ECEBF0E0908190FDFDCF609384029881A4
:1009B0009093850290FD13C0623088F0FE0131965D
:1009C000A6E8B2E06250262F30E02E5F3F4FCE0106
:1009D000820F931F21912D93E817F907D9F71092F1
:1009E000820288EF8093000285EA8093BC00DF9149
:1009F000CF910895ECEBF0E0808180FDFDCF109267
:100A0000820288EF8093000285EA8093BC000895FB
:100A1000ECEBF0E0208120FDFDCF2091820220FF51
:100A20000DC0662359F025E832E0A82FB92FF9014F
:100A300081918D938E2F821B8617D0F38091820235
:100A4000817008951F920F920FB60F9211240BB66A
:100A50000F922F933F938F939F93AF93BF93EF93F7
:100A6000FF93E091B9008E2F90E0FC013897E135BB
:100A7000F10508F058C08827EE58FF4F8F4F0C94AF
:100A8000300610928302E091830280918402E8177D
:100A900070F481E08E0F80938302F0E0EB57FD4FFE
:100AA00080818093BB0085E88093BC0043C0809127
:100AB000820281608093820284E98093BC003AC004
:100AC000E091830281E08E0F809383028091BB00CE
:100AD000F0E0EB57FD4F80832091830230E080915E
:100AE000840290E001972817390724F485EC80935D
:100AF000BC0020C085E88093BC001CC08091BB0076
:100B0000E0918302F0E0EB57FD4F808380918202F9
:100B100081608093820284E98093BC000BC085EAE7
:100B20008093BC0007C08091B9008093000284E0EC
:100B30008093BC00FF91EF91BF91AF919F918F91F6
:100B40003F912F910F900BBE0F900FBE0F901F90F3
:100B50001895E1E0F1E0808182608083808180618E
:100B60008083A2E0B1E08C9180618C93808180646D
:100B700080838C9180648C9380818062808380816B
:100B800088608083109207010895E2E0F1E080819F
:100B90008F7B80838AE68A95F1F700C0808180642C
:100BA00080830895BC01990F880B990B0E9454070C
:100BB00020E030E04AEF55EC0E94AA0620E030E049
:100BC0004FE753E40E9409080E941C07CB010895D7
:100BD000E2E0F1E080818F7D80838081877F808368
:100BE0008AE68A95F1F700C0A6E0B1E02C918081F9
:100BF000886080838AE68A95F1F700C08C919081A5
:100C00009062908390E0922B0895CF93DF9300D071
:100C1000CDB7DEB71816190634F4E2E0F1E0208112
:100C20002260208307C099232CF4E2E0F1E02081C8
:100C30002D7F208320E529831A829C01992324F4A7
:100C400022273327281B390B2B8363E0CE01019623
:100C50000E94CD040F900F900F90DF91CF910895D7
:100C6000EE0FFF1F881F8BBF0790F691E02D1994A0
:100C70005058BB27AA270E9450060C94CA070E940E
:100C8000BC0738F00E94C30720F039F49F3F19F4E5
:100C900026F40C94B9070EF4E095E7FB0C94B30727
:100CA000E92F0E94DB0758F3BA176207730784071E
:100CB000950720F079F4A6F50C94FD070EF4E09565
:100CC0000B2EBA2FA02D0B01B90190010C01CA0106
:100CD000A0011124FF27591B99F0593F50F4503EB1
:100CE00068F11A16F040A22F232F342F4427585FA3
:100CF000F3CF469537952795A795F0405395C9F7BB
:100D00007EF41F16BA0B620B730B840BBAF0915072
:100D1000A1F0FF0FBB1F661F771F881FC2F70EC011
:100D2000BA0F621F731F841F48F4879577956795E4
:100D3000B795F7959E3F08F0B0CF9395880F08F0D0
:100D40009927EE0F9795879508950E948F0708F4CD
:100D500081E008950E94BE060C94CA070E94C30752
:100D600058F00E94BC0740F029F45F3F29F00C9432
:100D7000B30751110C94FE070C94B9070E94DB07CE
:100D800068F39923B1F3552391F3951B550BBB27BA
:100D9000AA2762177307840738F09F5F5F4F220FFF
:100DA000331F441FAA1FA9F335D00E2E3AF0E0E8F6
:100DB00032D091505040E695001CCAF72BD0FE2F40
:100DC00029D0660F771F881FBB1F261737074807D4
:100DD000AB07B0E809F0BB0B802DBF01FF2793588C
:100DE0005F4F3AF09E3F510578F00C94B3070C9496
:100DF000FE075F3FE4F3983ED4F3869577956795B9
:100E0000B795F7959F5FC9F7880F911D96958795C0
:100E100097F90895E1E0660F771F881FBB1F6217DF
:100E200073078407BA0720F0621B730B840BBA0B9D
:100E3000EE1F88F7E09508950E9423076894B1118A
:100E40000C94FE0708950E94E30788F09F5798F0DE
:100E5000B92F9927B751B0F0E1F0660F771F881FBF
:100E6000991F1AF0BA95C9F714C0B13091F00E94D9
:100E7000FD07B1E008950C94FD07672F782F8827B0
:100E8000B85F39F0B93FCCF3869577956795B39500
:100E9000D9F73EF490958095709561957F4F8F4F6F
:100EA0009F4F0895E89409C097FB3EF49095809574
:100EB000709561957F4F8F4F9F4F9923A9F0F92F20
:100EC00096E9BB279395F695879577956795B7959E
:100ED000F111F8CFFAF4BB0F11F460FF1BC06F5F84
:100EE0007F4F8F4F9F4F16C0882311F096E911C096
:100EF000772321F09EE8872F762F05C0662371F0B7
:100F000096E8862F70E060E02AF09A95660F771FCA
:100F1000881FDAF7880F9695879597F90895990FA6
:100F20000008550FAA0BE0E8FEEF16161706E807B3
:100F3000F907C0F012161306E407F50798F0621BD4
:100F4000730B840B950B39F40A2661F0232B242BA9
:100F5000252B21F408950A2609F4A140A6958FEFC8
:100F6000811D811D089597F99F6780E870E060E01A
:100F700008959FEF80EC089500240A941616170632
:100F800018060906089500240A941216130614067A
:100F900005060895092E0394000C11F4882352F0DD
:100FA000BB0F40F4BF2B11F460FF04C06F5F7F4F95
:100FB0008F4F9F4F089557FD9058440F551F59F07C
:100FC0005F3F71F04795880F97FB991F61F09F3F36
:100FD00079F087950895121613061406551FF2CF5F
:100FE0004695F1DF08C0161617061806991FF1CFAF
:100FF00086957105610508940895E894BB276627D6
:101000007727CB0197F908950E948F0708F48FEF97
:1010100008950E941C080C94CA070E94BC0738F06F
:101020000E94C30720F0952311F00C94B3070C9491
:10103000B90711240C94FE070E94DB0770F3959FFB
:10104000C1F3950F50E0551F629FF001729FBB27BF
:10105000F00DB11D639FAA27F00DB11DAA1F649F5B
:101060006627B00DA11D661F829F2227B00DA11D0E
:10107000621F739FB00DA11D621F839FA00D611D94
:10108000221F749F3327A00D611D231F849F600DB5
:10109000211D822F762F6A2F11249F5750409AF0DE
:1010A000F1F088234AF0EE0FFF1FBB1F661F771F6A
:1010B000881F91505040A9F79E3F510580F00C9435
:1010C000B3070C94FE075F3FE4F3983ED4F3869594
:1010D00077956795B795F795E7959F5FC1F7FE2BD5
:1010E000880F911D9695879597F908950F931F93F3
:1010F000CF93DF93009731F46115710519F480E007
:1011000090E03AC08B01EC016EE070E081E090E08D
:101110000E94000BFC01892B91F380E88383011569
:10112000110571F01387028781E8838380918F0214
:1011300090919002892B21F4F0939002E0938F021A
:101140002097C9F0D187C087838182608383809193
:10115000910290919202892B71F4F0939202E093A4
:1011600091028091930290919402892B21F4F09343
:101170009402E0939302CF01DF91CF911F910F91E1
:101180000895CF93DF93CDB7DEB7AE014A5F5F4FCF
:10119000FA0161917191AF01809191029091920257
:1011A0000E940509DF91CF9108950F931F93CF936C
:1011B000DF93E0919102F0919202238121FF1BC005
:1011C0008C01D0E0C0E0F80181918F016091910223
:1011D00070919202DB011896ED91FC91199788238A
:1011E00031F01995892B79F3DFEFCFEFECCF8AE05F
:1011F0001995892B19F08FEF9FEF02C08D2F9C2F2F
:10120000DF91CF911F910F9108952F923F924F92AE
:101210005F926F927F928F929F92AF92BF92CF9286
:10122000DF92EF92FF920F931F93CF93DF93CDB78F
:10123000DEB72C970FB6F894DEBF0FBECDBF7C0192
:101240006B018A01FC0117821682838181FFBDC177
:10125000CE0101964C01F7019381F60193FD859132
:1012600093FF81916F01882309F4ABC1853239F472
:1012700093FD859193FF81916F01853229F4B70128
:1012800090E00E94660CE7CF512C312C20E02032F8
:10129000A0F48B3269F030F4803259F0833269F473
:1012A00020612CC08D3239F0803339F4216026C0A2
:1012B0002260246023C0286021C027FD27C030EDB4
:1012C000380F3A3078F426FF06C0FAE05F9E300D02
:1012D0001124532E13C08AE0389E300D1124332E72
:1012E00020620CC08E3221F426FD6BC1206406C042
:1012F0008C3611F4206802C0883641F4F60193FD63
:10130000859193FF81916F018111C1CF982F9F7DAE
:101310009554933028F40C5F1F4FFFE3F9830DC001
:10132000833631F0833771F0833509F05BC022C01A
:10133000F801808189830E5F1F4F44244394512C10
:10134000540115C03801F2E06F0E711CF801A08045
:10135000B18026FF03C0652D70E002C06FEF7FEF04
:10136000C5012C870E945B0C2C0183012C852F77F3
:10137000222E17C03801F2E06F0E711CF801A08018
:10138000B18026FF03C0652D70E002C06FEF7FEFD4
:10139000C5012C870E94490C2C012C852068222E27
:1013A000830123FC1BC0832D90E048165906B0F43E
:1013B000B70180E290E00E94660C3A94F4CFF50108
:1013C00027FC859127FE81915F01B70190E00E9483
:1013D000660C31103A94F1E04F1A5108411451044F
:1013E00071F7E5C0843611F0893639F5F80127FF29
:1013F00007C060817181828193810C5F1F4F08C09B
:1014000060817181072E000C880B990B0E5F1F4FB6
:101410002F76722E97FF09C09095809570956195F3
:101420007F4F8F4F9F4F2068722E2AE030E0A4013B
:101430000E949E0CA82EA81844C0853729F42F7E40
:10144000B22E2AE030E025C0F22FF97FBF2E8F3672
:10145000C1F018F4883579F0B4C0803719F08837B6
:1014600021F0AFC02F2F2061B22EB4FE0DC08B2D06
:101470008460B82E09C024FF0AC09F2F9660B92E41
:1014800006C028E030E005C020E130E002C020E1E5
:1014900032E0F801B7FE07C06081718182819381DB
:1014A0000C5F1F4F06C06081718180E090E00E5F8D
:1014B0001F4FA4010E949E0CA82EA818FB2DFF7799
:1014C0007F2E76FE0BC0372D3E7FA51450F474FEA0
:1014D0000AC072FC08C0372D3E7E05C0BA2C372DDD
:1014E00003C0BA2C01C0B52C34FF0DC0FE01EA0DBB
:1014F000F11D8081803311F4397E09C032FF06C0AE
:10150000B394B39404C0832F867809F0B39433FD69
:1015100013C030FF06C05A2CB31418F4530C5B18D8
:10152000B32CB31468F4B70180E290E03C870E94CA
:10153000660CB3943C85F5CFB31410F43B1801C08E
:10154000312C34FF12C0B70180E390E03C870E9449
:10155000660C3C8532FF17C031FD03C088E790E080
:1015600002C088E590E0B7010CC0832F867859F05F
:1015700031FF02C08BE201C080E237FD8DE2B7018E
:1015800090E00E94660CA51438F4B70180E390E067
:101590000E94660C5A94F7CFAA94F401EA0DF11D4B
:1015A0008081B70190E00E94660CA110F5CF332036
:1015B00009F451CEB70180E290E00E94660C3A94A3
:1015C000F6CFF7018681978102C08FEF9FEF2C96AF
:1015D0000FB6F894DEBF0FBECDBFDF91CF911F9144
:1015E0000F91FF90EF90DF90CF90BF90AF909F90C2
:1015F0008F907F906F905F904F903F902F900895C5
:101600000F931F93CF93DF93869F8001879F100DC9
:10161000969F100D1124C8010E941C0BEC0100972D
:1016200029F0A80160E070E00E94540CCE01DF9127
:10163000CF911F910F910895CF93DF938230910541
:1016400010F482E090E0E0919702F091980220E09F
:1016500030E0C0E0D0E0309711F14081518148176F
:101660005907C0F04817590761F482819381209788
:1016700019F09B838A832BC09093980280939702E2
:1016800026C02115310519F04217530718F49A01A5
:10169000BE01DF01EF010280F381E02DDCCF2115D7
:1016A000310509F1281B390B2430310590F41296CD
:1016B0008D919C9113976115710521F0FB01938326
:1016C000828304C09093980280939702FD01329622
:1016D00044C0FD01E20FF31F819391932250310921
:1016E0002D933C933AC02091950230919602232B82
:1016F00041F420910302309104023093960220932A
:10170000950220910102309102022115310541F428
:101710002DB73EB74091050250910602241B350BB0
:10172000E0919502F0919602E217F307A0F42E1BC8
:101730003F0B2817390778F0AC014E5F5F4F241735
:10174000350748F04E0F5F1F509396024093950265
:101750008193919302C0E0E0F0E0CF01DF91CF915F
:1017600008950F931F93CF93DF93009709F48CC0D4
:10177000FC01329713821282009197021091980215
:101780000115110581F420813181820F931F209171
:101790009502309196022817390779F5F093960251
:1017A000E093950271C0D80140E050E0AE17BF074A
:1017B00050F412962D913C911397AD0121153105EE
:1017C00009F1D901F3CF9D01DA01338322836081CE
:1017D0007181860F971F8217930769F4EC012881A6
:1017E0003981260F371F2E5F3F4F318320838A8137
:1017F0009B8193838283452B29F4F0939802E09395
:10180000970242C01396FC93EE931297ED01499113
:1018100059919E01240F351FE217F30771F480815F
:101820009181840F951F029611969C938E938281CD
:10183000938113969C938E931297E0E0F0E0D80189
:1018400012968D919C911397009719F0F8018C01D5
:10185000F6CF8D919C9198012E5F3F4F820F931F81
:1018600020919502309196022817390769F4309734
:1018700029F4109298021092970202C013821282E9
:101880001093960200939502DF91CF911F910F91D3
:101890000895FC010590615070400110D8F78095C3
:1018A00090958E0F9F1F0895DC0101C06D934150EC
:1018B0005040E0F70895FC01615070400190011024
:1018C000D8F7809590958E0F9F1F08950F931F93C3
:1018D000CF93DF93FB01238121FD03C08FEF9FEFA7
:1018E00028C022FF16C046815781248135814217C6
:1018F000530744F4A081B1819D012F5F3F4F318395
:1019000020838C93268137812F5F3F4F3783268337
:1019100010C0EB01092F182F0084F185E02D1995D7
:10192000892BE1F68E819F8101969F838E83812F83
:10193000902FDF91CF911F910F910895FA01AA275F
:10194000283051F1203181F1E8946F936E7F6E5F02
:101950007F4F8F4F9F4FAF4FB1E03ED0B4E03CD0B0
:10196000670F781F891F9A1FA11D680F791F8A1F93
:10197000911DA11D6A0F711D811D911DA11D20D0FA
:1019800009F468943F912AE0269F11243019305DB4
:101990003193DEF6CF010895462F4770405D4193A5
:1019A000B3E00FD0C9F7F6CF462F4F70405D4A33F2
:1019B00018F0495D31FD4052419302D0A9F7EACFBA
:1019C000B4E0A6959795879577956795BA95C9F7E9
:1019D00000976105710508959B01AC010A2E0694DC
:1019E0005795479537952795BA95C9F7620F731F95
:0C19F000841F951FA01D0895F894FFCFE0
:1019FC00F800009902200025640A006865690D0052
:101A0C006D63703235313520495320696E20636F18
:101A1C006E66696775726174696F6E206D6F64654F
:101A2C002061667465722072657365742100546858
:101A3C00652043414E20697320696E206C6F6F7076
:101A4C006261636B206D6F6465005468652043416F
:101A5C004E20697320696E206E6F726D616C206D03
:101A6C006F64650052202564200A005020256420F4
:021A7C000A005E
:00000001FF
