:100000000C9460030C94770C0C947D030C947D038A
:100010000C947D030C947D030C947D030C947D0360
:100020000C947D030C947D030C947D030C947D0350
:100030000C947D030C947D030C947D030C947D0340
:100040000C947D030C947D030C947D030C947D0330
:100050000C947D030C947D030C947D030C947D0320
:100060000C947D030C947D030C947D030C947D0310
:1000700000000000005C00000C000C007C287C28C4
:1000800058DC68002410480028542840000C000068
:10009000007884008478000054385400107C1000EC
:1000A00080400000101010000040000060100C00A4
:1000B00038543800487C40004864580044542C00B0
:1000C0001C107C005C5424003854240064140C0080
:1000D00068542C0048543800004800008048000054
:1000E0001028440028282800442810000454080040
:1000F00038445C00781478007C5428003844280088
:100100007C4438007C5444007C140400384474005F
:100110007C107C00447C440020403C007C106C003F
:100120007C4040007C187C0078103C00384438004B
:100130007C1408003844B8007C146800485424003B
:10014000047C04007C407C003C603C007C307C00F3
:100150006C106C000C700C0064544C00007C44006B
:100160000C106000447C00000804080080808000BF
:1001700000040800304878007C48300030484800CF
:1001800030487C00306850001078140090A8780047
:100190007C08700050744000808074007C106800FF
:1001A000447C4000781078007808700030483000B7
:1001B000F82810003048F80078100800505828003F
:1001C000083C4800384078003840380078207800F3
:1001D0004830480098A0780048685800107884009B
:1001E000007C00008478100008040804000000006F
:1001F0000000005F00000007000700147F147F1458
:10020000242A7F2A1223130864623649552250009B
:1002100005030000001C2241000041221C00082AA6
:100220001C2A0808083E080800503000000808088A
:100230000808006060000020100804023E51494593
:100240003E00427F400042615149462141454B31C9
:100250001814127F1027454545393C4A4949300159
:10026000710905033649494936064949291E0036B0
:100270003600000056360000000814224114141401
:10028000141441221408000201510906324979412F
:100290003E7E1111117E7F494949363E414141223E
:1002A0007F4141221C7F494949417F090901013EA3
:1002B000414151327F0808087F00417F41002040C2
:1002C000413F017F081422417F404040407F0204AB
:1002D000027F7F0408107F3E4141413E7F090909AA
:1002E000063E4151215E7F09192946464949493157
:1002F00001017F01013F4040403F1F2040201F7F00
:100300002018207F631408146303047804036151E8
:1003100049454300007F4141020408102041417FCC
:100320000000040201020440404040400001020479
:100330000020545454787F4844443838444444207E
:10034000384444487F3854545418087E0901020840
:100350001454543C7F0804047800447D400020403D
:10036000443D00007F10284400417F40007C041879
:1003700004787C0804047838444444387C14141409
:1003800008081414187C7C080404084854545420A9
:10039000043F4440203C4040207C1C2040201C3C2A
:1003A0004030403C44281028440C5050503C446499
:1003B000544C44000836410000007F0000004136E4
:1003C000080002010302010000000000000000001C
:1003D000065F5F0600000000070700070700001423
:1003E0007F7F147F7F1400242E6B6B3A120000462F
:1003F0006630180C666200307A4F5D377A48000428
:1004000007030000000000001C3E634100000000E4
:1004100041633E1C000000082A3E1C1C3E2A0808BE
:10042000083E3E0808000000A0E060000000000850
:100430000808080808000000006060000000006074
:1004400030180C060301003E7F594D7F3E000042EC
:10045000427F7F40400000627359496F660000226E
:100460006349497F360000181C16137F7F10002750
:100470006745457D3900003C7E4B497930000003DB
:100480006371190F070000367F49497F3600000667
:100490004F49693F1E000000006C6C000000000026
:1004A000A0EC6C00000000081C3663410000001442
:1004B00014141414140000004163361C08000002D8
:1004C0000351590F0600003E7F415D5D1F1E007CF9
:1004D0007E13137E7C0000417F7F49497F36001CDC
:1004E0003E634141632200417F7F41637F1C0041A5
:1004F0007F7F495D416300417F7F491D0103001CEF
:100500003E6341517372007F7F08087F7F000000C7
:10051000417F7F41000000307040417F3F0100413A
:100520007F7F081C776300417F7F41406070007FC0
:100530007F060C067F7F007F7F060C187F7F001CE4
:100540003E6341633E1C00417F7F49090F06001E48
:100550003F21717F5E0000417F7F19396F46002681
:10056000674D597B32000003417F7F410300007FCC
:100570007F40407F7F00001F3F60603F1F00007F83
:100580007F3018307F7F0063771C081C776300077B
:100590004F78784F0700006773594D47637100002B
:1005A0007F7F41410000000103060C18306000000D
:1005B00041417F7F000000080C0603060C08008004
:1005C000808080808080800000030704000000207D
:1005D0007454543C784000413F7F44447C38003898
:1005E0007C44446C280000307848493F7F40003804
:1005F0007C54545C180000487E7F49030200009838
:10060000BCA4A4F87C0400417F7F08047C7800002F
:10061000447D7D4000000040C484FD7D0000004119
:100620007F7F10386C440000417F7F400000007CD9
:100630007C0C180C7C78007C7C04047C78000038EE
:100640007C44447C38000084FCF8A4243C18001846
:100650003C24A4F8FC8400447C78441C1800004826
:100660005C54547424000000043E7F442400003C89
:100670007C40403C7C40001C3C60603C1C00003CDA
:100680007C6030607C3C00446C3810386C44009CCA
:10069000BCA0A0FC7C00004C64745C4C64000008AE
:1006A000083E7741410000000000777700000041DC
:1006B00041773E0808000002030103020301000025
:1006C00011241FBECFEFD4E0DEBFCDBF12E0A0E00B
:1006D000B1E0ECEEF8E202C005900D92A83CB10743
:1006E000D9F722E0A8ECB2E001C01D92A43DB20708
:1006F000E1F70E947F030C9474140C940000F894AA
:100700008FE190E00E94A90385B7806885BF0E94B1
:100710001E0B0E94950578940E946A0C1092C902E3
:100720001092C8020E94410A0E94130CFDCF5D9BEB
:10073000FECF8CB98A3029F460E070E08DE00E9431
:10074000970380E090E008955F9BFECF8CB190E02E
:10075000089590BD89B988E18AB98EE880BD64EAC0
:1007600073E087E993E00E94A81008958FE190E07C
:100770000E94A90360E070E081E40E9497038EE08C
:1007800091E00E94091180E090E00E94A40360E0E3
:1007900070E00E94970389E999E00197F1F700C0A2
:1007A000F2CFCF92DF92EF92FF920F931F93CF93EE
:1007B000DF9383E191E00E9409110E9498107C016F
:1007C0000E949D10C12CD12CC0E0D0E00AE211E0C3
:1007D0000E949810F601F85E808320812817A1F00E
:1007E00099279F938F931F922F93DF92CF921F93FE
:1007F0000F930E94F31021968DB79EB708960FB6FF
:10080000F8949EBF0FBE8DBF9FEFC91AD90AC114BD
:1008100088E0D806E9F6C7010E949D1000E010E0CC
:10082000E12CF12C0F2EFBE2CF2EF1E0DF2EF02D8C
:100830000E949810F801F85E20812817B1F09927DE
:100840009F938F931F922F931F930F93DF92CF92BB
:100850000E94F3109FEFE91AF90A8DB79EB7089628
:100860000FB6F8949EBF0FBE8DBF0F5F1F4F0115CF
:1008700098E01907E9F6FF92EF92DF93CF9384E6B1
:1008800091E09F938F930E94F3100F900F900F9021
:100890000F900F900F90DF91CF911F910F91FF90CC
:1008A000EF90DF90CF900895EFEFFBE11192EF3FD3
:1008B0008FE1F807D9F7089570E090E8899F600DFF
:1008C000711D1124FB01E150F44E40830895CF9235
:1008D000DF92EF92FF920F931F93CF93DF93C0E0CD
:1008E000D0E0C12CD12C0F2EE12CF2E1FF2EF02D07
:1008F0008E01CE018F779927892B39F460E08C2DFA
:100900000E94C7068FEFC81AD80AF801E150F44ECA
:100910008081F70180832196C115F4E0DF0741F75C
:10092000DF91CF911F910F91FF90EF90DF90CF90CB
:10093000089570E090E8899F600D711D1124FB01FE
:10094000E150F44E8081089584B38E6084BBAB98EF
:10095000AA9A8F9A97980895ECECF4E03197F1F702
:1009600000C0000024E0FC012083F6E626EE80E0D3
:10097000F15020408040E1F70895ECECF4E031972D
:10098000F1F700C0000025E0FC012083F6E626EE2A
:1009900080E0F15020408040E1F70895ECECF4E075
:1009A0003197F1F700C0000026E0FC012083F6E655
:1009B00026EE80E0F15020408040E1F70895ECEC15
:1009C000F4E03197F1F700C0000027E0FC0120833C
:1009D000F6E626EE80E0F15020408040E1F70895F1
:1009E00085B7806885BF80E094E10E94DF040895A8
:1009F0001F93CF93DF93EC010E94BD041881CE01B9
:100A00000E94AC04C881612F70E080E090E00E94F9
:100A1000A50D20E030E04EEF52E40E948B0C20E068
:100A200030E040E05CE30E94570E20E030E048EC0C
:100A300052E40E94570E0E946F0DD62F6C2F70E06B
:100A400080E090E00E94A50D20E030E04EEF52E4FF
:100A50000E948B0C20E030E040E05CE30E94570EE7
:100A600020E030E048EC52E40E94570E0E946F0DE7
:100A7000962F8D2FDF91CF911F9108950E94F8043A
:100A8000292F482F592F99E0980F933120F499E09E
:100A9000920F9331F0F0082E000C990B99231CF45F
:100AA000919581959109022E000C330B33231CF490
:100AB000319521953109821793072CF4151664F0AE
:100AC00083E090E0089581E090E014163CF080E02F
:100AD000089584E090E0089582E090E00895E09128
:100AE0000201F091030180830895E0910201F091E9
:100AF00003011082E0910201F091030180E1808303
:100B000020EB40E830E0E0910201F0910301208306
:100B1000842F932FE0910001F09101011082019741
:100B2000C9F72F5F283B79F7089585B7806885BF9F
:100B3000E0910201F09103018EEA8083E0910201CD
:100B4000F091030181EA8083E0910201F0910301B9
:100B50008AED8083E0910201F091030182E18083BC
:100B6000E0910201F091030188EC8083E0910201A1
:100B7000F091030188EA8083E0910201F091030182
:100B80008FE38083E0910201F091030185ED808382
:100B9000E0910201F091030180E88083E09102017D
:100BA000F091030181E88083E0910201F09103015B
:100BB00080E58083E0910201F091030189ED80835B
:100BC000E0910201F091030181E28083E091020152
:100BD000F091030180E28083E0910201F091030132
:100BE00082E08083E0910201F09103018BED80832C
:100BF000E0910201F091030180E38083E091020122
:100C0000F09103018DEA8083E0910201F0910301EC
:100C10001082E0910201F091030184EA8083E09167
:100C20000201F091030186EA8083E0910201F091D4
:100C300003018FEA80830E9475050E945404089581
:100C4000EF92FF920F931F93CF93DF93E82EF62E30
:100C5000405288E0480280011124C0E0D0E0FE014B
:100C6000E00FF11FE953FC4F44916C2F6F0D8E2D57
:100C70000E945C042196C830D10589F7DF91CF919D
:100C80001F910F91FF90EF900895EF92FF920F93B5
:100C90001F93CF93DF93E82EF62E4052042E000CC4
:100CA000550B8A01000F111F000F111F040F151F94
:100CB000C0E0D0E0FE01E00FF11FE451FE4F44918F
:100CC0006C2F6F0D8E2D0E945C042196C530D105CE
:100CD00089F7DF91CF911F910F91FF90EF900895C9
:100CE000EF92FF920F931F93CF93DF93E82EF62E90
:100CF000405284E0480280011124C0E0D0E0FE01AF
:100D0000E00FF11FE059FF4F44916C2F6F0D8E2DB6
:100D10000E945C042196C430D10589F7DF91CF9100
:100D20001F910F91FF90EF900895E0910201F091D3
:100D30000301805580830895E0910201F091030141
:100D4000982F9F709083E0910201F09103018295AA
:100D50008F70806180830895E0910201F09103011A
:100D60001082E0910201F091030190E19083E09103
:100D70000201F09103018055808380E890E0E091CA
:100D80000001F091010110820197C9F70895CF93F6
:100D9000C82F862F0E949C068C2F0E949506CF910B
:100DA00008950F931F93CF93DF93FA01408144235B
:100DB00079F08F01D82F0F5F1F4FC62F6C2F8D2F0B
:100DC0000E947006F80141918F01CC5F4111F6CF6E
:100DD000DF91CF911F910F9108950F931F93CF93A0
:100DE000DF93FA014081442379F08F01D82F0F5F00
:100DF0001F4FC62F6C2F8D2F0E944506F801419181
:100E00008F01CB5F4111F6CFDF91CF911F910F91F1
:100E100008950F931F93CF93DF93FA0140814423EA
:100E200079F08F01D82F0F5F1F4FC62F6C2F8D2F9A
:100E30000E942006F80141918F01C85F4111F6CF51
:100E4000DF91CF911F910F9108951F93CF93DF935F
:100E5000182FC62FD62FD695D695D695682F8D2FBD
:100E60000E949904C77041E050E002C0440F551F32
:100E7000CA95E2F7482B612F8D2F0E945C04DF9109
:100E8000CF911F9108952F923F924F925F926F9250
:100E90007F928F929F92AF92BF92CF92DF92EF920A
:100EA000FF920F931F93CF93DF93CDB7DEB72997B0
:100EB0000FB6F894DEBF0FBECDBF062F242E182F1D
:100EC000141BE12EF12CC82ED12C842F90E09E8390
:100ED0008D833C016C0C7D1C6E147F040CF460C08F
:100EE000642F70E080E090E00E94A50D9B01AC01B2
:100EF0000E94570E4B015C01802F90E0A0E0B0E013
:100F000089839A83AB83BC83B701312E2F82202E35
:100F10008301D986C886A885B9856A1B7B0B072EF5
:100F2000000C880B990B0E94A70D6B017C01A70197
:100F30009601C701B6010E94570E9B01AC01C50185
:100F4000B4010E948B0C0E94CA0E2B013C016981E6
:100F50007A818B819C810E94A70D6B017C019B0192
:100F6000AC01C301B2010E948C0C0E94760D832D4E
:100F70000E942507A3019201C701B6010E948B0CB4
:100F80000E94760D832D0E9425073394632D70E017
:100F9000061717070CF0BFCFC884D984022D2F8005
:100FA000302E3218E32CF12C10E0AD80BE80A00E64
:100FB000B11EAE14BF040CF45AC0622D70E080E084
:100FC00090E00E94A50D9B01AC010E94570E2B01E1
:100FD0003C01C601DD0CAA0BBB0B89839A83AB8352
:100FE000BC83B701BE82AD82601B710B072E000C63
:100FF000880B990B0E94A70D6B017C01A70196013C
:10100000C701B6010E94570E9B01AC01C301B2019A
:101010000E948B0C0E94CA0E4B015C0169817A818F
:101020008B819C810E94A70D6B017C019B01AC010F
:10103000C501B4010E948C0C0E94760D862F632D91
:101040000E942507A5019401C701B6010E948B0CDF
:101050000E94760D862F632D0E9425073394632D01
:1010600070E0AD81BE81A617B7070CF0BDCF0E941E
:10107000670429960FB6F894DEBF0FBECDBFDF918F
:10108000CF911F910F91FF90EF90DF90CF90BF9085
:10109000AF909F908F907F906F905F904F903F9018
:1010A0002F9008952F923F924F925F926F927F926E
:1010B0008F929F92AF92BF92CF92DF92EF92FF9268
:1010C0000F931F93CF93DF9300D000D0CDB7DEB73F
:1010D000C22ED12C242E312C062F10E0E82EF12C1C
:1010E000B60162197309072E000C880B990B0E9438
:1010F000A70D4B015C01B8016E197F09072E000C8A
:10110000880B990B0E94A70D9B01AC01C501B4018E
:101110000E94FD0C4B015C0120E030E040E85FE301
:101120000E94F80C88233CF08FEFC81AD80A2C14C0
:101130003D04D4F174C068019FEFC91AD90AEC14B8
:10114000FD040CF06CC000E010E0C101330CAA0BF0
:10115000BB0B89839A83AB83BC83B801012E000C3F
:10116000880B990B0E94A70DA50194010E94570EB0
:101170002B013C0169817A818B819C810E94A70DA2
:101180009B01AC01C301B2010E948C0C0E946F0D47
:101190008E2D0E9425079FEFE91AF90A0F5F1F4F56
:1011A000EC14FD04D4F23BC0A501940160E070E0B2
:1011B00080E89FE30E94FD0C69837A838B839C8384
:1011C00000E010E04701FF0CAA08BB08B801012E9F
:1011D000000C880B990B0E94A70D9B01AC01698143
:1011E0007A818B819C810E94570E2B013C01C501A5
:1011F000B4010E94A70D9B01AC01C301B2010E9482
:101200008C0C0E946F0D862F622D0E942507AFEF78
:101210002A1A3A0A0F5F1F4F2C143D04BCF20E9499
:1012200067040F900F900F900F90DF91CF911F9157
:101230000F91FF90EF90DF90CF90BF90AF909F9075
:101240008F907F906F905F904F903F902F90089578
:101250009F92AF92BF92CF92DF92EF92FF920F9345
:101260001F93CF93DF935C01962E6A01E9018BE017
:1012700090E00E941F0FFC01B182A0829282D48272
:10128000C382D683C58310870783F286E186DF9108
:10129000CF911F910F91FF90EF90DF90CF90BF9073
:1012A000AF909F900895EF92FF920F931F93CF936B
:1012B000DF937C010E945404D7011996ED91FC91B3
:1012C0001A97309739F44EEB51E060E080E00E94CD
:1012D000090706C04081518160E080E00E94090753
:1012E0002AE04AE06FE780E00E945208F70102819D
:1012F0004081518165E082E0800F0E94ED06D701B8
:101300001596CD91DC911697209769F00D5F488175
:10131000598165E0802F0E94ED060D80DE81C02D91
:101320000F5F2097A1F7F7012281C381D481209715
:1013300071F011E0120F4881598165E0812F0E9400
:10134000ED060B80DC81C02D11502097A1F70E9483
:101350006704DF91CF911F910F91FF90EF90089557
:101360000F931F93CF93DF93082FD2E010E00BC0B1
:10137000412F6C2F8D2F0E945C04CF5FC530C1F7C9
:10138000DF5FD83011F0C12FF3CF4EE360E082E091
:10139000800F0E9445060E946704DF91CF911F9144
:1013A0000F9108956F927F928F929F92AF92BF920A
:1013B000CF92DF92EF92FF920F931F93CF93DF9321
:1013C000E12CF12C00E010E020E030E040E050E0C3
:1013D00060E088EC91E00E942809EC0120E030E018
:1013E000AC0161E082ED91E00E9428095C017C0182
:1013F00020E030E040E050E060E08CED91E00E94C1
:1014000028094C0120E030E0AC0161E082EE91E07F
:101410000E9428096C0120E030E0AC0162E088EE17
:1014200091E00E9428093C01760120E030E040E094
:1014300050E060E08EEE91E00E942809BE82AD820D
:10144000F50190868782F401D682C582F601768204
:10145000658290878783CE010E9453098A810E940A
:10146000B009CE01DF91CF911F910F91FF90EF90C6
:10147000DF90CF90BF90AF909F908F907F906F90B4
:1014800008950E94D209EC0180E094E10E943E059B
:101490008230910529F48B819C81009711F524C03D
:1014A0008330910529F48D819E810097E1F41CC061
:1014B0008130910551F40F81188501151105A1F0B6
:1014C000C8010E945309E8010FC0892B69F40985FE
:1014D0001A850115110541F0C8010E945309E80160
:1014E00003C0EC0101C0EC018A810E94B009CCCF9D
:1014F00080EB87BBBE9881E58DB9C49A08958FB9FA
:10150000779BFECF089580E00E947F0A779BFECFF5
:101510008FB10895C49880EC0E947F0AC49A089500
:10152000CF93C82FC49883E00E947F0A8C2F0E941B
:101530007F0A0E94830AC49ACF9108950E94780A74
:101540000E948A0A8EE00E94900A807E803831F0E4
:1015500084EF91E00E94091181E0089586E292E013
:101560000E94091180E00895CF93DF93D82FC62FF2
:10157000C49882E00E947F0A8D2F0E947F0A8C2FE0
:101580000E947F0AC49ADF91CF9108958778C4980A
:1015900080680E947F0AC49A08951F93CF93DF93B7
:1015A000C82F162FD42FC49885E00E947F0A8C2F55
:1015B0000E947F0A812F0E947F0A8D2F0E947F0A3E
:1015C000C49A8C2F0E94900ADF91CF911F910895A9
:1015D000C49880EA0E947F0A0E94830AC49A0895F0
:1015E0000E949E0A811127C060E48FE00E94B40A25
:1015F0008EE00E94900A86FD07C084E592E00E947A
:10160000091181E090E0089584E792E00E940911B9
:1016100063E08BE20E94B40A60E080E30E94B40AB7
:1016200060E080E40E94B40A60E080E50E94B40AB1
:1016300080E090E0089581E090E008950E949E0A85
:10164000811133C063E08AE20E94B40A6AE989E248
:101650000E94B40A67E088E20E94B40A60E08FE06A
:101660000E94B40A8EE00E94900A807E39F080E9E0
:1016700092E00E94091181E090E008958EEA92E0E4
:101680000E94091163E08BE20E94B40A60E080E3EB
:101690000E94B40A60E080E40E94B40A60E080E541
:1016A0000E94B40A80E090E0089581E090E00895FF
:1016B0000F931F93CF93DF938C01FC018081918165
:1016C000BC01687F7770EC01C770DD277695679560
:1016D000769567957695679581E30E94B40ABE0179
:1016E000660F771F62957295707F7627607F7627E9
:1016F00082E30E94B40AF801628185E30E94B40A81
:10170000F8018281882371F0C0E0F801EC0FF11D2F
:10171000638186E38C0F0E94B40ACF5FF801828157
:10172000C81798F381E00E94C60A0E94E80A82FF67
:10173000FCCFDF91CF911F910F9108959F92AF92AF
:10174000BF92CF92DF92EF92FF920F931F93CF93AE
:10175000DF93CDB7DEB72B970FB6F894DEBF0FBE81
:10176000CDBF6C010E94E80A80FFFCCF0E94E80A0E
:1017700080FF3BC081E60E94900AA82E82E60E946C
:10178000900A829586958770B12CAA0CBB1CAA0C76
:10179000BB1CAA0CBB1CA82A85E60E94900A8F706D
:1017A000982E81F07E0184E0E80EF11C06E6090D1A
:1017B00016E6812F0E94900AF70181937F011F5F37
:1017C0001013F7CF0E94E80A682F6E7F8CE20E9408
:1017D000B40ABA82A9829B828BE0FE013196D601BF
:1017E00001900D928A95E1F70BC01A8219821B8233
:1017F0008BE0FE013196D60101900D928A95E1F7BA
:10180000C6012B960FB6F894DEBF0FBECDBFDF9199
:10181000CF911F910F91FF90EF90DF90CF90BF90ED
:10182000AF909F900895CF92DF92EF92FF920F9327
:101830001F93CF93DF93CDB7DEB72B970FB6F894F6
:10184000DEBF0FBECDBF85B7806885BF80E094E165
:101850000E943E05E82E80E094E10E94BD0400E075
:1018600014E1F801C08080E094E10E94AC04F8012A
:10187000D08080E094E10E94CE04F801F08080E006
:1018800094E10E94DF04F801208196B34AE050E021
:101890005A83498386E08B83CC82DD8294709E8359
:1018A000EF82F8862987CE0101960E94580B2B966D
:1018B0000FB6F894DEBF0FBECDBFDF91CF911F9161
:1018C0000F91FF90EF90DF90CF9008958CE20E94EF
:1018D000900A08958A98F89485B7826085BF85B785
:1018E0008E7F85BF8BB780648BBF789408951F92DD
:1018F0000F920FB60F9211248F939F9381E090E087
:101900009093C9028093C8029F918F910F900FBE50
:101910000F901F9018955058BB27AA270E94A30C20
:101920000C941D0E0E940F0E38F00E94160E20F02F
:1019300039F49F3F19F426F40C940C0E0EF4E09544
:10194000E7FB0C94060EE92F0E942E0E58F3BA17EF
:10195000620773078407950720F079F4A6F50C94C5
:10196000500E0EF4E0950B2EBA2FA02D0B01B901ED
:1019700090010C01CA01A0011124FF27591B99F005
:10198000593F50F4503E68F11A16F040A22F232F11
:10199000342F4427585FF3CF469537952795A79561
:1019A000F0405395C9F77EF41F16BA0B620B730B08
:1019B000840BBAF09150A1F0FF0FBB1F661F771F79
:1019C000881FC2F70EC0BA0F621F731F841F48F42E
:1019D000879577956795B795F7959E3F08F0B0CFB7
:1019E0009395880F08F09927EE0F9795879508959E
:1019F0000E94E20D08F481E008950E94110D0C94FC
:101A00001D0E0E94160E58F00E940F0E40F029F491
:101A10005F3F29F00C94060E51110C94510E0C945A
:101A20000C0E0E942E0E68F39923B1F3552391F307
:101A3000951B550BBB27AA2762177307840738F03D
:101A40009F5F5F4F220F331F441FAA1FA9F335D09A
:101A50000E2E3AF0E0E832D091505040E695001C4E
:101A6000CAF72BD0FE2F29D0660F771F881FBB1F08
:101A7000261737074807AB07B0E809F0BB0B802DE6
:101A8000BF01FF2793585F4F3AF09E3F510578F012
:101A90000C94060E0C94510E5F3FE4F3983ED4F381
:101AA000869577956795B795F7959F5FC9F7880FE6
:101AB000911D9695879597F90895E1E0660F771F38
:101AC000881FBB1F621773078407BA0720F0621BC9
:101AD000730B840BBA0BEE1F88F7E09508950E94F4
:101AE000760D6894B1110C94510E08950E94360E33
:101AF00088F09F5798F0B92F9927B751B0F0E1F0CF
:101B0000660F771F881F991F1AF0BA95C9F714C07E
:101B1000B13091F00E94500EB1E008950C94500E37
:101B2000672F782F8827B85F39F0B93FCCF38695B7
:101B300077956795B395D9F73EF490958095709514
:101B400061957F4F8F4F9F4F0895E89409C097FB91
:101B50003EF490958095709561957F4F8F4F9F4F84
:101B60009923A9F0F92F96E9BB279395F6958795C8
:101B700077956795B795F111F8CFFAF4BB0F11F48B
:101B800060FF1BC06F5F7F4F8F4F9F4F16C0882332
:101B900011F096E911C0772321F09EE8872F762F68
:101BA00005C0662371F096E8862F70E060E02AF0A9
:101BB0009A95660F771F881FDAF7880F9695879595
:101BC00097F90895990F0008550FAA0BE0E8FEEF6A
:101BD00016161706E807F907C0F012161306E407F1
:101BE000F50798F0621B730B840B950B39F40A26EA
:101BF00061F0232B242B252B21F408950A2609F4C8
:101C0000A140A6958FEF811D811D089597F99F67CB
:101C100080E870E060E008959FEF80EC0895002474
:101C20000A941616170618060906089500240A9441
:101C300012161306140605060895092E0394000CC7
:101C400011F4882352F0BB0F40F4BF2B11F460FF56
:101C500004C06F5F7F4F8F4F9F4F089557FD90587F
:101C6000440F551F59F05F3F71F04795880F97FB60
:101C7000991F61F09F3F79F087950895121613061A
:101C80001406551FF2CF4695F1DF08C01616170649
:101C90001806991FF1CF869571056105089408957E
:101CA000E894BB2766277727CB0197F908950E9410
:101CB0006A0E0C941D0E0E940F0E38F00E94160E34
:101CC00020F0952311F00C94060E0C940C0E1124A8
:101CD0000C94510E0E942E0E70F3959FC1F3950F38
:101CE00050E0551F629FF001729FBB27F00DB11DA0
:101CF000639FAA27F00DB11DAA1F649F6627B00D30
:101D0000A11D661F829F2227B00DA11D621F739F18
:101D1000B00DA11D621F839FA00D611D221F749F26
:101D20003327A00D611D231F849F600D211D822F6D
:101D3000762F6A2F11249F5750409AF0F1F0882394
:101D40004AF0EE0FFF1FBB1F661F771F881F9150C1
:101D50005040A9F79E3F510580F00C94060E0C945C
:101D6000510E5F3FE4F3983ED4F3869577956795DF
:101D7000B795F795E7959F5FC1F7FE2B880F911DEB
:101D80009695879597F9089519F416F40C940C0E0E
:101D90000C940A0F0E94360EB8F39923C9F3B6F3D8
:101DA0009F57550B87FF0E94180F0024A0E640EABA
:101DB000900180585695979528F4805C660F771FA0
:101DC000881F20F026173707480730F4621B730B73
:101DD000840B202931294A2BA69517940794202596
:101DE00031254A2758F7660F771F881F20F02617DE
:101DF0003707480730F4620B730B840B200D311D3D
:101E0000411DA09581F7B901842F9158880F9695AF
:101E1000879508959F3F31F0915020F487957795ED
:101E20006795B795880F911D9695879597F90895B1
:101E300091505040660F771F881FD2F70895CF93B7
:101E4000DF938230910510F482E090E0E091CC02C3
:101E5000F091CD0220E030E0C0E0D0E0309711F109
:101E60004081518148175907C0F04817590761F45C
:101E700082819381209719F09B838A832BC0909352
:101E8000CD028093CC0226C02115310519F04217EE
:101E9000530718F49A01BE01DF01EF010280F381BC
:101EA000E02DDCCF2115310509F1281B390B243039
:101EB000310590F412968D919C91139761157105DF
:101EC00021F0FB019383828304C09093CD02809321
:101ED000CC02FD01329644C0FD01E20FF31F819355
:101EE0009193225031092D933C933AC02091CA021C
:101EF0003091CB02232B41F4209106013091070150
:101F00003093CB022093CA02209104013091050145
:101F10002115310541F42DB73EB74091080150918C
:101F20000901241B350BE091CA02F091CB02E217A4
:101F3000F307A0F42E1B3F0B2817390778F0AC01EC
:101F40004E5F5F4F2417350748F04E0F5F1F5093C9
:101F5000CB024093CA028193919302C0E0E0F0E08B
:101F6000CF01DF91CF9108950F931F93CF93DF930C
:101F7000009709F48CC0FC01329713821282009101
:101F8000CC021091CD020115110581F4208131811F
:101F9000820F931F2091CA023091CB022817390774
:101FA00079F5F093CB02E093CA0271C0D80140E00A
:101FB00050E0AE17BF0750F412962D913C91139745
:101FC000AD012115310509F1D901F3CF9D01DA01E8
:101FD0003383228360817181860F971F8217930755
:101FE00069F4EC0128813981260F371F2E5F3F4F9E
:101FF000318320838A819B8193838283452B29F4BB
:10200000F093CD02E093CC0242C01396FC93EE9382
:102010001297ED01499159919E01240F351FE21746
:10202000F30771F480819181840F951F02961196B8
:102030009C938E938281938113969C938E93129797
:10204000E0E0F0E0D80112968D919C9113970097F3
:1020500019F0F8018C01F6CF8D919C9198012E5FBB
:102060003F4F820F931F2091CA023091CB02281755
:10207000390769F4309729F41092CD021092CC02FE
:1020800002C0138212821093CB020093CA02DF9126
:10209000CF911F910F9108958F929F92AF92BF920F
:1020A000CF92DF92EF92FF92CF93DF93EC016881A2
:1020B00079818A819B81611571058105910521F4E2
:1020C00064E279ED8BE597E02DE133EF41E050E0FC
:1020D0000E94DA1349015A019B01AC01A7EAB1E45D
:1020E0000E94F9136B017C01ACEEB4EFA5019401E1
:1020F0000E940714DC01CB018C0D9D1DAE1DBF1D80
:10210000B7FF03C00197A109B04888839983AA83C8
:10211000BB839F77DF91CF91FF90EF90DF90CF90BF
:10212000BF90AF909F908F9008950E944C1008959B
:102130008AE091E00E944C100895A0E0B0E0809306
:102140000A0190930B01A0930C01B0930D01089527
:102150000F931F93CF93DF93009731F461157105AF
:1021600019F480E090E03AC08B01EC016EE070E081
:1021700081E090E00E940B13FC01892B91F380E831
:1021800083830115110571F01387028781E883832A
:102190008091CE029091CF02892B21F4F093CF024F
:1021A000E093CE022097C9F0D187C08783818260F7
:1021B00083838091D0029091D102892B71F4F093A6
:1021C000D102E093D0028091D2029091D302892B68
:1021D00021F4F093D302E093D202CF01DF91CF91AB
:1021E0001F910F910895A0E0B0E0E9EFF0E10C94A9
:1021F0001C14AE014B5F5F4FFA0161917191AF0109
:102200008091D0029091D1020E943911E2E00C94A9
:1022100038140F931F93CF93DF93E091D002F09186
:10222000D102238121FF1BC08C01D0E0C0E0F80166
:1022300081918F016091D0027091D102DB011896DB
:10224000ED91FC911997882331F00995892B79F349
:10225000DFEFCFEFECCF8AE00995892B19F08FEFF4
:102260009FEF02C08D2F9C2FDF91CF911F910F9177
:102270000895ACE0B0E0EFE3F1E10C940C147C01C4
:102280006B018A01FC0117821682838181FFBDC127
:10229000CE0101964C01F7019381F60193FD8591E2
:1022A00093FF81916F01882309F4ABC1853239F422
:1022B00093FD859193FF81916F01853229F4B701D8
:1022C00090E00E944413E7CF512C312C20E02032C3
:1022D000A0F48B3269F030F4803259F0833269F423
:1022E00020612CC08D3239F0803339F4216026C052
:1022F0002260246023C0286021C027FD27C030ED64
:10230000380F3A3078F426FF06C0FAE05F9E300DB1
:102310001124532E13C08AE0389E300D1124332E21
:1023200020620CC08E3221F426FD6BC1206406C0F1
:102330008C3611F4206802C0883641F4F60193FD12
:10234000859193FF81916F018111C1CF982F9F7D5E
:102350009554933028F40C5F1F4FFFE3F9830DC0B1
:10236000833631F0833771F0833509F05BC022C0CA
:10237000F801808189830E5F1F4F44244394512CC0
:10238000540115C03801F2E06F0E711CF801A080F5
:10239000B18026FF03C0652D70E002C06FEF7FEFB4
:1023A000C5012C870E9439132C0183012C852F77BE
:1023B000222E17C03801F2E06F0E711CF801A080C8
:1023C000B18026FF03C0652D70E002C06FEF7FEF84
:1023D000C5012C870E9427132C012C852068222EF2
:1023E000830123FC1BC0832D90E048165906B0F4EE
:1023F000B70180E290E00E9444133A94F4CFF501D3
:1024000027FC859127FE81915F01B70190E00E9432
:10241000441331103A94F1E04F1A51084114510419
:1024200071F7E5C0843611F0893639F5F80127FFD8
:1024300007C060817181828193810C5F1F4F08C04A
:1024400060817181072E000C880B990B0E5F1F4F66
:102450002F76722E97FF09C09095809570956195A3
:102460007F4F8F4F9F4F2068722E2AE030E0A401EB
:102470000E947C13A82EA81844C0853729F42F7E0B
:10248000B22E2AE030E025C0F22FF97FBF2E8F3622
:10249000C1F018F4883579F0B4C0803719F0883766
:1024A00021F0AFC02F2F2061B22EB4FE0DC08B2DB6
:1024B0008460B82E09C024FF0AC09F2F9660B92EF1
:1024C00006C028E030E005C020E130E002C020E195
:1024D00032E0F801B7FE07C060817181828193818B
:1024E0000C5F1F4F06C06081718180E090E00E5F3D
:1024F0001F4FA4010E947C13A82EA818FB2DFF7764
:102500007F2E76FE0BC0372D3E7FA51450F474FE4F
:102510000AC072FC08C0372D3E7E05C0BA2C372D8C
:1025200003C0BA2C01C0B52C34FF0DC0FE01EA0D6A
:10253000F11D8081803311F4397E09C032FF06C05D
:10254000B394B39404C0832F867809F0B39433FD19
:1025500013C030FF06C05A2CB31418F4530C5B1888
:10256000B32CB31468F4B70180E290E03C870E947A
:102570004413B3943C85F5CFB31410F43B1801C059
:10258000312C34FF12C0B70180E390E03C870E94F9
:1025900044133C8532FF17C031FD03C088E790E04B
:1025A00002C088E590E0B7010CC0832F867859F00F
:1025B00031FF02C08BE201C080E237FD8DE2B7013E
:1025C00090E00E944413A51438F4B70180E390E032
:1025D0000E9444135A94F7CFAA94F401EA0DF11D16
:1025E0008081B70190E00E944413A110F5CF332001
:1025F00009F451CEB70180E290E00E9444133A946E
:10260000F6CFF7018681978102C08FEF9FEF2C965E
:10261000E2E10C9428140F931F93CF93DF93869FCE
:102620008001879F100D969F100D1124C8010E94F4
:102630001F0FEC01009729F0A80160E070E00E94F4
:102640003213CE01DF91CF911F910F910895FC01BC
:102650000590615070400110D8F7809590958E0FCD
:102660009F1F0895DC0101C06D9341505040E0F779
:102670000895FC016150704001900110D8F78095D9
:1026800090958E0F9F1F08950F931F93CF93DF9305
:10269000FB01238121FD03C08FEF9FEF28C022FFA4
:1026A00016C046815781248135814217530744F46F
:1026B000A081B1819D012F5F3F4F318320838C9397
:1026C000268137812F5F3F4F3783268310C0EB0170
:1026D000092F182F0084F185E02D0995892BE1F64B
:1026E0008E819F8101969F838E83812F902FDF9112
:1026F000CF911F910F910895FA01AA27283051F127
:10270000203181F1E8946F936E7F6E5F7F4F8F4F22
:102710009F4FAF4FB1E03ED0B4E03CD0670F781F81
:10272000891F9A1FA11D680F791F8A1F911DA11D66
:102730006A0F711D811D911DA11D20D009F468949F
:102740003F912AE0269F11243019305D3193DEF647
:10275000CF010895462F4770405D4193B3E00FD0FD
:10276000C9F7F6CF462F4F70405D4A3318F0495DE8
:1027700031FD4052419302D0A9F7EACFB4E0A695CB
:102780009795879577956795BA95C9F700976105ED
:10279000710508959B01AC010A2E06945795479543
:1027A00037952795BA95C9F7620F731F841F951F38
:1027B000A01D0895052E97FB1EF400940E94F113AE
:1027C00057FD07D00E94431407FC03D04EF40C942D
:1027D000F11350954095309521953F4F4F4F5F4FE6
:1027E000089590958095709561957F4F8F4F9F4F7D
:1027F00008950E946514A59F900DB49F900DA49F0D
:10280000800D911D11240895B7FF0C94F9130E94B7
:10281000F913821B930B08952F923F924F925F9270
:102820006F927F928F929F92AF92BF92CF92DF92E0
:10283000EF92FF920F931F93CF93DF93CDB7DEB745
:10284000CA1BDB0B0FB6F894DEBF0FBECDBF0994D9
:102850002A88398848885F846E847D848C849B8430
:10286000AA84B984C884DF80EE80FD800C811B813E
:10287000AA81B981CE0FD11D0FB6F894DEBF0FBE6D
:10288000CDBFED010895A1E21A2EAA1BBB1BFD01CD
:102890000DC0AA1FBB1FEE1FFF1FA217B307E4073F
:1028A000F50720F0A21BB30BE40BF50B661F771F97
:1028B000881F991F1A9469F7609570958095909577
:1028C0009B01AC01BD01CF010895A29FB001B39F50
:1028D000C001A39F700D811D1124911DB29F700D29
:0C28E000811D1124911D0895F894FFCF74
:1028EC00001200100000D4022000010000006865F6
:1028FC00690D005374617274696E67205352414DB7
:10290C0020746573742E2E2E20000A57726974651C
:10291C00207068617365206572726F723A206578F9
:10292C00745F72616D5B2534645D203D202530320F
:10293C0058202873686F756C6420626520253032CE
:10294C0058290A005352414D207465737420636FEB
:10295C006D706C657465642077697468200A253421
:10296C0064206572726F727320696E20777269745D
:10297C006520706861736520616E64200A2534647B
:10298C00206572726F727320696E20726574726941
:10299C006576616C207068617365200A0A004D6170
:1029AC00696E206D656E7500506C61792067616D84
:1029BC0065004869676873636F726500546573746A
:1029CC00310054657374320054657374330054656C
:1029DC00737434004D435032353135206973204EB9
:1029EC004F5420696E20636F6E66696775726174EF
:1029FC00696F6E206D6F64652061667465722072FC
:102A0C006573657421004D4350323531352049537F
:102A1C0020696E20636F6E66696775726174696F89
:102A2C006E206D6F646520616674657220726573CB
:102A3C00657421005468652043414E206973204E13
:102A4C004F5420696E206C6F6F706261636B206DE8
:102A5C006F6465005468652043414E20697320699A
:102A6C006E206C6F6F706261636B206D6F646500BC
:102A7C005468652043414E206973204E4F542069A1
:102A8C006E206E6F726D616C206D6F6465005468A2
:102A9C00652043414E20697320696E206E6F726D04
:082AAC00616C206D6F64650090
:00000001FF
